:1000000012C00ECB2BC0D9C729C028C0E0C7C1C7BA
:1000100025C024C023C0B3CA21C020C01FC01EC039
:10002000EFC61CC01BC011241FBECFE5D4E0DEBF4D
:10003000CDBF11E0A0E6B0E0E4E3FDE102C0059031
:100040000D92AE37B107D9F712E0AEE7B1E001C0CB
:100050001D92A331B107E1F746D06ACED1CF982FD8
:1000600081E08093E1011092A6011092A701809196
:10007000F30187FF04C080E88093A60102C01092BC
:10008000A6018091F30182958F7082FF04C0809158
:10009000A701806403C08091A7018F7B8093A70193
:1000A0008091F30182958F7081FF04C08091A70138
:1000B000806203C08091A7018F7D8093A70180910A
:1000C000F30182958F7080FF04C08091A701806149
:1000D00003C08091A7018F7E8093A701892F0FD83D
:1000E0001092E1010895F3D14BD793DAEDD18ADA7A
:1000F00044D636DA85B78F7885BF8FD28BB78064C8
:100100008BBF29E088E190E00FB6F894A89581BDF7
:100110000FBE21BD579AC19878949FD28091E0017B
:10012000813011F41092E0018091F001813049F4A6
:100130008091DF01882329F41092F0018091F4016D
:100140008EDF80918101813041F78091DF0188232A
:1001500021F710928101E0918201F0E0E05AFF4F17
:1001600080817DDFDACF8130A1F4662319F0613020
:1001700099F50AC080918201882311F488E001C0BA
:1001800081508093820108956093810160937E0184
:100190000895823051F4662319F06130E9F402C009
:1001A00080E001C084E660E00BC0833059F4662330
:1001B00019F0613089F402C080E001C084E662E099
:1001C00051D10895843041F4662319F0613021F44F
:1001D00002C062D1089560D108951F93CF93DF9339
:1001E000162FC62FD0E0882309F442C0FE01ED5738
:1001F000FE4F90819F3F31F080918001882311F460
:100200009F5F908380918301813490F0809184017D
:10021000813470F0109283011092840181E0809308
:1002200080018091DF01882311F068D101C05BD18A
:10023000FE01EB57FE4F8081882359F0FE01E957FC
:10024000FE4F8081853128F4FE01E757FE4F81E0A3
:100250008083FE01ED57FE4F8081803509F057C045
:10026000C557DE4F81E0888383E0612F7CDF4FC07C
:10027000FE01EB57FE4F8081882341F0FE01E957D4
:10028000FE4F80818F3F11F08F5F8083FE01ED571D
:10029000FE4F808186508A34B8F49E0127573E4F26
:1002A000F9018081DE01AB57BE4F882359F0FE0172
:1002B000E957FE4F10821C92F901108282E0612FF3
:1002C00052DF02C081E08C93DE01AB57BE4F8C91B0
:1002D000882359F0FE01E957FE4F8081853128F0CF
:1002E0001C92108281E0612F3EDFFE01ED57FE4F30
:1002F000108210928001FE01E557FE4F8081882315
:1003000019F084E0612F2FDFC557DE4F1882DF918F
:10031000CF911F9108950F931F938091E101813038
:10032000D1F083B390E033E0969587953A95E1F765
:1003300001E010E080279127817060E04EDF83B3F9
:1003400090E024E0969587952A95E1F780279127FC
:10035000817061E042DF1F910F91089520918F011C
:10036000309190012317E9F180918D0190918E01D8
:10037000009731F0019790938E0180938D0108953D
:10038000231710F42F5F01C0215020938F01E091BB
:100390008F01E53688F4EE2319F489B7877F0BC007
:1003A000F0E0EE0FFF1FE859FF4F8081918199BD6A
:1003B00088BD89B7886089BF80919101803120F024
:1003C0008091920180939101E0919101F0E0EE0F14
:1003D000FF1FE05DFE4F8081918190938E0180939D
:1003E0008D01089580916900813061F01092910132
:1003F00080919001833320F084E68093900102C0C5
:1004000010929001809191018823C1F4E0919001B4
:10041000E0938F01E53628F5EE2319F489B7877F3D
:100420000BC0F0E0EE0FFF1FE859FF4F8081918174
:1004300099BD88BD89B7886089BF0895803120F053
:100440008091920180939101E0919101F0E0EE0F93
:10045000FF1FE05DFE4F8081918190938E0180931C
:100460008D010895982F853608F094E680919101CA
:10047000803120F0809192018093910180919001D0
:10048000891721F480919101861729F090939001AA
:1004900060939101A7DF089580918F01809390016F
:1004A0000895E199FECF90E057DB0895E199FECFE2
:1004B00090E05ADB08958B9A939A80E991E0019736
:1004C000F1F78B98939808958AE888B908958FE09A
:1004D00087BB14BA82E181BB8FEF88BB88E785BBFD
:1004E00083E082BB089580E395E79093DE018093DB
:1004F000DD01C09881E08093DF010895C09A1092D9
:10050000DF01089541B73FB720910C028CB59DB52E
:100510009091AB0198238091A801982B80910A02B9
:10052000282334272323922711F491E003C09B3F13
:1005300008F09AEF892F08958091A601982F9F7156
:1005400096504091A701480F8091A801480F8091D3
:10055000A901480F8091AA01480FE4E9F1E0292F91
:1005600030E02E0F3F1F02C08191480FE217F307C2
:10057000D9F7842F8195089590910C0207C085B713
:10058000806885BF889585B78F7785BF80910C027D
:100590009817A9F30895F0DF8091E201843048F4C0
:1005A0008091E301813029F41092E3018091E2010E
:1005B00008958FEF08951F93CF93DF931092E0017A
:1005C00010E0C6E0D0E0E7DF843028F081E08093DF
:1005D000E00110E00DC090E00C2E02C0880F991FC2
:1005E0000A94E2F7182B22978FEFCE3FD80759F7DE
:1005F000812FDF91CF911F9108951F931091E101F9
:100600001092E1011092E301B7DF8091E3018823AA
:10061000C9F71093E1011F9108951F93CF93DF93C2
:1006200080E03FDF8093690180E03BDF80936901D8
:1006300081E037DF80930A0281E033DF80930A0292
:10064000CCEAD1E010E4812F2CDF89931D5F1037B5
:10065000D1F7DF91CF911F910895EF92FF920F9301
:100660001F93CF93DF931092E1011092E00110925B
:10067000A6011092A7011092A8011092A901109250
:10068000AA0154E9E52E51E0F52EF701119281E01F
:10069000E63AF807D9F782E18093AB012AD481309A
:1006A00009F064C3C6EAD1E086DF88838091E00167
:1006B000813009F45BC3219691E0CB3AD907A1F7C9
:1006C0002091A601822F82958695877090E0837095
:1006D0009070892B09F04AC39091A801992329F0C1
:1006E00080916901981709F041C327FF13C09091C9
:1006F000A901992309F43AC3ECEAF1E08081981743
:1007000019F49B3F08F42AC33196A1E0EC3BFA07A9
:10071000A9F72CC39091A901992309F41FC38091D3
:10072000DF01813019F49E3F09F418C38091DF0185
:10073000813019F49D3F09F411C380910A02981782
:1007400009F014C30BC3022F0F71065010E00AC04A
:1007500032DFF70181937F018091E001813009F45C
:1007600005C31F5F1017A0F326DF8093AB018091B4
:10077000E001813009F4FAC2DFDE9091AB01891704
:1007800009F0F4C28091A60187FD60C04091A701E5
:10079000842F8695869590E0242F30E0822793273A
:1007A00083709070892B09F051C011E01093E10122
:1007B000842F82958F7080FF18C080ED97E001979D
:1007C000F1F779DE10930B0283E08093E20110933E
:1007D000ED0107C085B7806885BF889585B78F779D
:1007E00085BF8091ED018130A9F38091A7018295A9
:1007F0008F7081FF21C010E002C0BEDE1F5F8091BC
:100800000A021817D0F380ED97E00197F1F753DE55
:1008100091E090930B0283E08093E2019093ED01CD
:1008200007C085B7806885BF889585B78F7785BFF6
:100830008091ED018130A9F38091A70182958F709D
:1008400082FF02C080E85BD41092E10180919401A4
:100850008F3009F49AC1803158F5863009F4DDC033
:10086000873098F4833009F498C0843038F48130AC
:1008700009F493C0823009F079C2AEC0843009F423
:10088000ABC0853009F072C2B1C08C3009F418C118
:100890008D3038F4873009F4CFC08B3009F066C250
:1008A000E1C08D3009F431C18E3009F05FC257C10B
:1008B000873209F4FAC1883298F4803209F4AEC163
:1008C000813238F4803109F471C1813109F04EC2AE
:1008D00089C1833209F4D2C1853209F047C2E3C12C
:1008E0008F3399F0803438F4803309F4E0C18133D8
:1008F00009F03CC2F5C1803921F08F3909F036C2C8
:100900000CC010E0C5E6D1E016C28091A6018F713F
:10091000873009F02BC28FE97EC08091A6018F71CC
:100920008B3009F023C29091950180E020919601CF
:10093000820F911D9093E8018093E70190919701B8
:1009400080E020919801820F911D9093EA0180939D
:10095000E9012091E7013091E8014091E9015091CE
:10096000EA0100D000D000D0EDB7FEB7319680E5A7
:1009700091E0ADB7BEB712969C938E9311973383D7
:1009800022835583448302D7EDB7FEB736960FB660
:10099000F894FEBF0FBEEDBFE9C18091A6018F7133
:1009A000893009F0E3C11091950182E07ADD1817D2
:1009B00009F0DCC11091960183E073DD181709F08E
:1009C000D5C180E395E79093DE018093DD01C09867
:1009D00081E08093DF01CAC18091A6018F718730C9
:1009E00009F0C4C1C09A1092DF01C0C18091A60174
:1009F0008F71873009F0BAC12091A701822F8695A7
:100A0000869590E030E08227932783709070892B41
:100A100009F0ACC185E823DBA9C18091A6018F71E3
:100A2000873009F0A3C18091DF01813009F09EC1B8
:100A300069DD80930A029AC18091A6018F71873087
:100A400009F094C12091A701822F8695869590E0A8
:100A500030E08227932783709070892B09F086C13C
:100A600087E8D9CF9091A601892F8F71883009F03E
:100A70007DC18091DF01813009F078C197FF76C197
:100A800010919501812F81508A3F08F06FC120E0BD
:100A900030E0E901C455DE4F888181508E3F50F02F
:100AA000C901880F991F820F931F805C612FFEDCA4
:100AB00018835CC12F5F3F4F2031310551F756C17C
:100AC0009091A601892F8F71883009F04FC18091D4
:100AD000DF01813009F04AC197FF48C100919501BB
:100AE000802F81508A3F08F041C1CCEAD1E010E468
:100AF0008881801729F4812F6FEFD8DC8FEF8883EE
:100B000021961D5F1037A1F731C18091A60190E0B9
:100B10008F7190700D970CF429C18091950180938D
:100B2000A601209196012093A701809197018093BF
:100B3000A801809199018093A901809198018093E7
:100B4000AA01822F8695869590E030E08227932730
:100B500083709070892B09F009C18DE05CCF809182
:100B6000A6018F71893009F001C11091950182E0D1
:100B700098DC181709F0FAC01091960183E091DC17
:100B8000181709F0F3C0F894FFCF2091A701822F26
:100B90008695869590E030E0822793278370907049
:100BA000892B09F0E3C08FE8AAD2E0C08091A601AA
:100BB0008F71893009F0DAC08091960181508031BF
:100BC00008F0D4C02091A701822F8695869590E0E9
:100BD00030E08227932783709070892B09F0C6C07C
:100BE00080E919CF8091DF01813009F0BFC010E0AA
:100BF00008C080919501EC56FE4F810F628156DC52
:100C00001F5FE12FF0E08091A60190E08F7190705E
:100C10000897E817F9076CF300DDA8C02091A6013A
:100C2000822F90E08F7190700A970CF09FC027FF81
:100C30009DC02091A901CCEAD1E0FE0190E0808125
:100C4000821729F09F5F31969031C9F79FEF83E0BB
:100C5000989FC00111248F5B24DC2091A90190E0B2
:100C60008881821729F09F5F21969031C9F79FEF05
:100C700083E0989FC00111248E5B42C08091A60141
:100C800090E08F7190708730910509F46FC00A97DA
:100C90000CF06CC080919501853608F067C06091BA
:100CA0009601E0DB63C0949A61C094985FC0909114
:100CB000A601892F8F71873009F058C097FD56C063
:100CC0002091A701822F8695869590E030E08227BB
:100CD000932783709070892B09F048C086E89BCEDB
:100CE0009091A601892F8F71893009F03FC097FF3D
:100CF0003DC01091950182E0D4DB1817B9F583E06F
:100D0000D0DB34C000D000D0EDB7FEB73196ADB720
:100D1000BEB71296DC93CE931197A12FB0E0AC56DC
:100D2000BE4F12968C918283138230D51F5F0F9035
:100D30000F900F900F908091EE01181718F310E0AC
:100D400008C0E12FF0E0EC56FE4F828190E030D5F4
:100D50001F5F8091EE011817A0F308C0822F90E06A
:100D60008F7190700697439708F4EDCCDF91CF9187
:100D70001F910F91FF90EF90089586B1846886B916
:100D80003E9A0895806487B9369A3699FECF24B189
:100D900035B1C9010895FF920F931F9380E0F2DFF0
:100DA0009093E8018093E7011092EA011092E90123
:100DB000FF240091E9011091EA0181E0E3DF080FCF
:100DC000191F1093EA010093E901F39484E1F816E6
:100DD00081F78091E9019091EA0164E170E0C2D469
:100DE0007093EA016093E9018091E9019091EA0131
:100DF0001092EA011092E9011F910F91FF9008955E
:100E00001F920F920FB60F9211242F933F938F933F
:100E10009F932CB53DB58091E101813009F447C025
:100E200028553E4385E02036380708F040C090E062
:100E300080E0459B9F5F8F5F8530D9F79330B8F195
:100E40003093E5012093E4012091E4013091E50124
:100E500080910C02882319F08091EB0102C08091EF
:100E6000EC01281B3109213A310510F480E018C04B
:100E7000C90181549140803A910510F481E010C07D
:100E8000C90181589240803A910510F482E008C06F
:100E9000215C3340203A310510F08FEF01C083E030
:100EA0008093E20181E08093E3014398479A9F9108
:100EB0008F913F912F910F900FBE0F901F9018951B
:100EC0009C018617970798F0861B970B8F3F91051B
:100ED00009F068F480910C02922F961B882319F474
:100EE0009093EB0102C09093EC0181E0089580E0C3
:100EF00008951092EB011092EC011092E3017DDB5A
:100F000007C085B7806885BF889585B78F7785BF0F
:100F10008091E301813041F080918101882321F4A7
:100F20008091F001882369F380918101882329F55C
:100F300023DB8091E4019091E50160ED72E0C0DF78
:100F40008130D9F41092E30117DB8091E301813005
:100F5000A1F48091E4019091E50160E971E0B0DFD6
:100F6000813059F41092E30116DB813031F413DB48
:100F700090E0823019F491E001C090E0892F08954B
:100F80001FBC88E89BE39BBD8ABD89B7806189BF90
:100F900008951F920F920FB60F9211248F939F9373
:100FA000949A80E991E00197F1F794989F918F913D
:100FB0000F900FBE0F901F9018951F920F920FB6B3
:100FC0000F9211240F900FBE0F901F9018951F9233
:100FD0000F920FB60F9211240F931F932F933F93ED
:100FE0004F935F936F937F938F939F93AF93BF9331
:100FF000CF93DF93EF93FF938091E101813009F16B
:1010000047984398CFEFD0E000E51FEF13C0459914
:1010100011C020916A01CE01821B910940971CF4F6
:1010200010936A0103C0205F20936A01EED2802FE3
:101030008A95F1F78CB59DB588559E4340F3439A48
:1010400022C080910B028130F1F48091ED0181305A
:10105000D1F48091E2018430B0F48CB59DB5885A0A
:101060009E43D8F320E040E852E004C0CA01019753
:10107000F1F72F5F8091E2012817C0F31CDA10927C
:10108000ED0110920B028BB780648BBFFF91EF9143
:10109000DF91CF91BF91AF919F918F917F916F9190
:1010A0005F914F913F912F911F910F910F900FBE24
:1010B0000F901F90189526E030E0482F50E061E037
:1010C000CA01022E02C0959587950A94E2F78370B3
:1010D0008093E2016093ED0107C085B7806885BF0A
:1010E000889585B78F7785BF8091ED018130A9F311
:1010F000225030408FEF2E3F380711F70895FF92AE
:101100000F931F93CF93DF93982F81E08093E1019A
:1011100080917E01882349F010927E0180916901BF
:101120008093A80180917F010CC08091EF018823FA
:1011300059F01092EF018091F1018093A801809104
:10114000F2018093A9010DC0809169018093A801EB
:101150008091AA018093A9018091A7018F78809343
:10116000A70190939401923209F4B9C0933258F5D3
:101170009B3009F489C09C3080F4933009F47BC023
:10118000943020F4913009F022C124C1983008F441
:101190001EC1983009F0D3C120C19F3009F417C196
:1011A000903138F49D3009F412C19E3008F012C11C
:1011B0006BC0913109F47BC0913108F46CC090325E
:1011C00008F4BDC104C1903809F4A9C09138E0F415
:1011D000963209F49EC0973238F4943209F4F7C07D
:1011E000953208F0FAC086C0903309F4F0C091330C
:1011F00020F4973209F0A3C1EAC0913309F4EAC0A0
:101200009F3309F09CC1E3C0903909F49AC0913929
:1012100050F4963809F492C09F3809F4D8C0953834
:1012200009F08DC17FC0923909F4D1C0923908F418
:10123000B3C0933909F4C9C09F3909F080C1ABDD4F
:101240008091E7019091E801909395018091E701E9
:101250009091E801809396018091E9019091EA01D3
:10126000909397018091E9019091EA018093980110
:1012700055E0F52EB4C08091F501809395018091E1
:10128000F50180939601A6C08091950181508A3F17
:1012900008F4A3C054C18091F50180939501809119
:1012A000F601809396018093EE0181501FC040911A
:1012B000F30121E030E00AC0F901EC50FE4F8081DB
:1012C000F901EC56FE4F80832F5F3F4F8091F30171
:1012D00090E08217930784F7F42EF39480C08091F6
:1012E0009501853608F02BC180919601803108F474
:1012F00071C025C18091F501809395019091F6010F
:1013000090939601853608F01AC1903108F462C0B6
:1013100016C180919501853608F45FC010C1909385
:1013200095010CC08DEA809395018091DD0190912B
:10133000DE01909396011092A9014CC01092A90170
:101340004CC0F09096018F2D8150803108F0F7C08D
:10135000C6E9D1E000E010E019C08091DF018130E2
:1013600021F480919501820F0CC030919501C80144
:10137000830F911D0297029710F4188204C0822FE8
:10138000830F8FD888830F5F1F4F2196202F0F1553
:1013900020F382E0F80E16C000919601802F815054
:1013A000803108F0CCC0C6E9D1E010E006C08091E1
:1013B0009501810F76D889931F5F1017C0F342E023
:1013C000F42EF00E1092A9010AC01092A901FF2478
:1013D000F39405C033E0F32E02C022E0F22E809198
:1013E0000A028093AA018091A901882329F480919F
:1013F000A6018F778093A6019F2D9A5F8091A60109
:10140000807E982B9093A60197D88093AB01F5D856
:1014100086E951DEC6EAD1E089914DDEA1E0CB3A02
:10142000DA07D1F704E911E0CF2DD0E0C00FD11FCA
:1014300004C0F80181918F013EDE0C171D07C9F72A
:101440008091AB0138DE8091A60187FD78C02091A4
:10145000A701822F8695869590E030E0822793271A
:1014600083709070892B09F06AC01092E10184D8D2
:101470008091A70182958F7080FF10C08CD88091D9
:10148000E201833031F481E08093DC0189E790E070
:1014900004C01092DC018EE690E08AD18091A70111
:1014A00082958F7081FF4BC0C0E0D0E001E010E07A
:1014B00072D8FE0193E0F695E7959A95E1F7AE01B3
:1014C00047705070833061F4E454FE4F2081C801AE
:1014D00002C0880F991F4A95E2F7282B20830CC081
:1014E000E454FE4F2081C80102C0880F991F4A951D
:1014F000E2F78095822380832196F1E0C030DF07F8
:10150000B9F6C0E0D0E00BE611E0FE01E454FE4F76
:10151000808100D000D0EDB7FEB73196ADB7BEB731
:1015200012961C930E931197828313822FD12196CA
:101530000F900F900F900F90C032D10531F7DF91CF
:10154000CF911F910F91FF9008951F93182F8A300C
:1015500011F48DE0FADF5D9BFECF1CB91F91089559
:1015600010BC89E189B91BB886E880BD88E18AB9D9
:101570008FE691E09093100280930F0208951F92DE
:101580000F920FB60F9211248F939F93EF93FF93B7
:101590009CB180910802882319F18091060288236A
:1015A00029F490930602109207021AC08091070254
:1015B000E82FF0E0EF50FE4F90838F5F809307029B
:1015C0008091060281508093060280910602882352
:1015D00039F481E08093F0018093EF0110920802CA
:1015E000973339F480910802882319F481E08093BD
:1015F0000802FF91EF919F918F910F900FBE0F9076
:101600001F90189589E685BD089580916A0183BD74
:10161000089510920C0210920B0281E085BF08958C
:101620001F920F920FB60F9211241F932F933F9387
:101630004F935F936F937F938F939F93AF93BF93DA
:10164000EF93FF938EB590E087709070892B31F007
:101650008CB59DB588539A4408F472C08EB590E05D
:1016600087709070892B31F08CB59DB5895092456B
:1016700008F066C040E080B320910C0290E08470D6
:10168000907030E08217930709F45AC04F5F4530DD
:1016900091F71DBC1CBC82E08EBDA895829B04C046
:1016A00081E080930C0202C010920C028BB78F7BFA
:1016B0008BBF4398479A10920802109206022BD6CD
:1016C0004DD62091DF01213021F58091DD019091EF
:1016D000DE01892BE9F08091DD019091DE01019717
:1016E0009093DE018093DD018091DD019091DE0118
:1016F000895B9B4070F48091DD019091DE0162E393
:1017000070E030D0892B29F488B3822788BB01C0D0
:10171000F5D688E280936A0178DF8091E10181301B
:1017200079F41091ED01113059F48091E201843087
:1017300038F480ED97E00197F1F7BDD610930B02D6
:10174000FF91EF91BF91AF919F918F917F916F9199
:101750005F914F913F912F911F910F900FBE0F906E
:101760001F901895AA1BBB1B51E107C0AA1FBB1FE6
:10177000A617B70710F0A61BB70B881F991F5A951D
:10178000A9F780959095BC01CD010895A0E0B0E047
:10179000EBECFBE0A6C2FE01359661917191809160
:1017A0000F0290911002AF0109D02096E2E0B5C27D
:1017B00060910F0270911002FAD10895ABE0B0E091
:1017C000E3EEFBE07EC23C012B015A01FC011782D3
:1017D0001682838181FD03C06FEF7FEFB9C19AE06C
:1017E000892E1E010894211C311CF3012381F20172
:1017F00023FD859123FF81912F01882309F4A5C141
:10180000853239F423FD859123FF81912F018532A3
:1018100021F490E0B301CBD1E8CF982FFF24EE2440
:101820009924FFE1FF15D0F09B3269F09C3228F437
:10183000903259F0933291F40EC09D3249F09033BA
:1018400069F441E024C052E0F52A84E0F82A28C077
:1018500098E0F92A25C0E0E1FE2A22C0F7FC29C061
:10186000892F80538A3070F4F6FE05C0989C902C26
:101870001124980E15C0E89CE02C1124E80EF0E22B
:10188000FF2A0EC09E3229F4F6FC5FC140E4F42A20
:1018900007C09C3619F450E8F52A02C0983649F47E
:1018A000F20123FD959123FF91912F01992309F0D6
:1018B000B8CF892F8554833018F08052833038F4A4
:1018C00044E050E0A40EB51E5FE359830FC0933689
:1018D00031F0933779F0933509F052C01FC0F5010C
:1018E0008081898342E050E0A40EB51E610101E0D1
:1018F00010E011C0F501C080D180F6FC03C06FEF8D
:101900007FEF02C0692D70E042E050E0A40EB51EEA
:10191000C60142D18C015FE7F52213C0F501C080FA
:10192000D180F6FC03C06FEF7FEF02C0692D70E03D
:1019300042E050E0A40EB51EC60123D18C0150E850
:10194000F52AF3FE06C018C080E290E0B3012FD163
:10195000EA948E2D90E008171907B0F30DC0F60138
:10196000F7FC8591F7FE81916F0190E0B3011FD1E3
:10197000E110EA94015010400115110581F7E2C011
:10198000943611F0993661F5F7FE08C0F501208113
:1019900031814281538184E090E00AC0F501808169
:1019A00091819C01442737FD4095542F82E090E0BF
:1019B000A80EB91E9FE6F92257FF09C05095409521
:1019C000309521953F4F4F4F5F4FE0E8FE2ACA0107
:1019D000B901A1012AE030E016D1D82ED2183FC0BB
:1019E000953729F41F2D1F7E2AE030E01DC01F2DE2
:1019F000197F9F3661F0903720F4983509F0A5C023
:101A00000FC0903739F0983709F09FC004C028E024
:101A100030E00AC0106114FD146020E130E004C021
:101A200014FD166020E132E017FF08C0F501608167
:101A300071818281938144E050E008C0F50180818A
:101A40009181BC0180E090E042E050E0A40EB51E20
:101A5000A101D9D0D82ED2188FE7F82EF122F6FEA8
:101A60000BC05EEFF522D91438F4F4FE07C0F2FC87
:101A700005C08FEEF82202C01D2D01C0192DF4FE05
:101A80000DC0FE01ED0DF11D8081803319F499EE3A
:101A9000F92208C01F5FF2FE05C003C08F2D8678B3
:101AA00009F01F5F0F2DF3FC13C0F0FE0EC01E15D2
:101AB00010F09D2C0AC09D2C9E0C911A1E2D05C065
:101AC00080E290E0B30173D01F5F1E15C8F304C01D
:101AD0001E1510F4E11A01C0EE2404FF0EC080E3CD
:101AE00090E0B30164D002FF1BC001FD03C088E792
:101AF00090E00EC088E590E00BC0802F867881F0E2
:101B000001FF02C08BE201C080E2F7FC8DE290E0B1
:101B1000B3014DD005C080E390E0B30148D09A9462
:101B2000D914C8F3DA94F101ED0DF11D808190E034
:101B3000B3013DD0DD20B1F705C080E290E0B301F4
:101B400036D0EA94EE20C9F750CEF3016681778152
:101B5000CB012B96E2E1D1C0E199FECF9FBB8EBBBA
:101B6000E09A99278DB30895262FE199FECF9FBB68
:101B70008EBB2DBB0FB6F894E29AE19A0FBE019688
:101B80000895FC010590615070400110D8F78095D0
:101B900090958E0F9F1F0895FC0161507040019039
:101BA0000110D8F7809590958E0F9F1F08950F9381
:101BB0001F93CF93DF938C01EB018B8181FF1BC0BF
:101BC00082FF0DC02E813F818C819D8128173907AE
:101BD00064F4E881F9810193F983E88306C0E8851C
:101BE000F985802F0995892B31F48E819F8101968B
:101BF0009F838E8302C00FEF1FEFC801DF91CF914B
:101C00001F910F910895FA01AA27283051F1203130
:101C100081F1E8946F936E7F6E5F7F4F8F4F9F4F80
:101C2000AF4FB1E03ED0B4E03CD0670F781F891FC2
:101C30009A1FA11D680F791F8A1F911DA11D6A0F90
:101C4000711D811D911DA11D20D009F468943F9143
:101C50002AE0269F11243019305D3193DEF6CF0142
:101C60000895462F4770405D4193B3E00FD0C9F708
:101C7000F6CF462F4F70405D4A3318F0495D31FD75
:101C80004052419302D0A9F7EACFB4E0A6959795C8
:101C9000879577956795BA95C9F70097610571059E
:101CA00008959B01AC010A2E0694579547953795E8
:101CB0002795BA95C9F7620F731F841F951FA01D42
:101CC00008952F923F924F925F926F927F928F92E0
:101CD0009F92AF92BF92CF92DF92EF92FF920F93BB
:101CE0001F93CF93DF93CDB7DEB7CA1BDB0B0FB6C5
:101CF000F894DEBF0FBECDBF09942A883988488882
:101D00005F846E847D848C849B84AA84B984C88417
:101D1000DF80EE80FD800C811B81AA81B981CE0F0E
:101D2000D11D0FB6F894DEBF0FBECDBFED010895F3
:041D3000F894FFCF55
:101D340003040610112021252701C83AD92ECE2EDE
:101D4400BF2EAC2E942E782E582E332E0B2EDE2D35
:101D5400AC2D782D3F2D022DC12C7D2C352CE92B5B
:101D6400992B472BF02A962A392AD9297629102922
:101D7400A7283B28CC275B27E8267126F925802550
:101D8400042585240524842301237D22F82172213E
:101D9400EA206220D91F501FC61E3C1EB21D281DFA
:101DA4009D1C141C8A1B011B791AF2196C19E61864
:101DB4006218E0175E17DE166016E4156A15F21451
:101DC4007C14081498132913BD125412EE118B11AC
:101DD4002A11CD1074101D10CA0F7B0F2F0FE70EA0
:101DE400A20E610E240EEC0DB70D860D590D300DAB
:101DF4000C0DEC0CD00CB80CA40C950C8B0C840CB6
:101E0400820C000001000200040006000900130017
:101E14001D003B0077002B015702830307070F0EB9
:101E24004C69676874203D2025690A54656D7020EB
:101E34003D2025690025692C000128256920000022
:0E1E440000000200000000A50A0000000000DF
:00000001FF
